:100B880044697374616E63653A00636D0052616E07
:0F0B980067652066696E646572000000000000EA
:070B6100120BBB7F027E00B6
:100B6800E4FDFCC3ED9FEC9E5015E4FBFA0BBB00C3
:0F0B7800010ABA04F8BBFBF50DBD00010C80E4C7
:010B8700224B
:100BBB008FA0C290C291D2927F017E00120B68C2AD
:020BCB00922274
:100BCD008FA0D290C291D2927F017E00120B68C28B
:020BDD00922262
:060B2F008B0C8A0D890EFB
:100B3500E4F50FF510AB0CAA0DA90E851082850FF3
:100B4500831208F6FF6014120BCD0510E510700234
:0B0B5500050F7F017E00120B6880DAA4
:010B60002272
:0809C4008E0C8F0D8C0E8D0FBF
:1009CC0078107C007D007BFF7A0B79A27E007F057E
:1009DC001208D0751500751604E4F517F518E50D19
:1009EC00450C602BAE0CAF0D7C007D0A12092374F4
:1009FC00102516F8A605AE0CAF0D7C007D0A120969
:100A0C00238E0C8F0DE516151670D3151580CFE5BA
:100A1C000FB4FF17E50EB4FF1274102518F8E6702A
:100A2C00160518E51870F2051780EEC37405950FBE
:100A3C00F518E4950EF517C3E50C64809480500509
:100A4C007F2D120BCD851715851816C3E516940549
:100A5C00E51564809480501674102516F8E6243041
:0E0A6C00FF120BCD0516E51670E1051580DDB5
:010A7A002259
:100BA700E4F58CF58AD2B5000000000000000000D3
:040BB70000C2B522A1
:100A7B00E4F508F509120BA730B2FD20B2FDAF8CDF
:100A8B00750A008F0BE50BAD8AF50AEDF50B758C2E
:100A9B00FF758AFF7FC0120B617BFF7A0B7988127F
:100AAB000B2F7FC9120BBBAE0AAF0BEE3395E0FDDC
:100ABB00FCE47BB87A88F9F8D31209594011AE0AD5
:100ACB00AF0B7C007D3B1209238E088F098005E458
:100ADB00F508F5097D037C00AF09AE081209C47B4C
:0C0AEB00FF7A0B7992120B2FAE08AF09B6
:010AF70022DC
:100AF8007F38120BBB7F0C120B611F120B617F80BA
:100B0800120B617BFF7A0B7995120B2F7F147E00F5
:100B1800120B68758909D28CE4F58CF58AD2B21269
:070B28000A7B120B6480F848
:03000000020BDF11
:0C0BDF00787FE4F6D8FD758118020AF852
:10080000E709F608DFFA8046E709F208DFFA803EDA
:1008100088828C83E709F0A3DFFA8032E309F608C7
:10082000DFFA8078E309F208DFFA807088828C832F
:10083000E309F0A3DFFA806489828A83E0A3F608E3
:10084000DFFA805889828A83E0A3F208DFFA804CBD
:1008500080D280FA80C680D4806980F28033801094
:1008600080A680EA809A80A880DA80E280CA8033FD
:1008700089828A83ECFAE493A3C8C582C8CCC58375
:10088000CCF0A3C8C582C8CCC583CCDFE9DEE78045
:100890000D89828A83E493A3F608DFF9ECFAA9F0C4
:1008A000EDFB2289828A83ECFAE0A3C8C582C8CC1A
:1008B000C583CCF0A3C8C582C8CCC583CCDFEADE33
:1008C000E880DB89828A83E493A3F208DFF980CC95
:1008D00088F0EF60010E4E60C388F0ED2402B4048E
:1008E0000050B9F582EB2402B4040050AF23234535
:0608F00082239008507302
:1008F600BB010CE58229F582E5833AF583E02250B7
:1009060006E92582F8E622BBFE06E92582F8E22200
:0D091600E58229F582E5833AF583E493221A
:10092300C2D5EC30E709B2D5E4C39DFDE49CFCEEEF
:1009330030E715B2D5E4C39FFFE49EFE12096FC3EF
:10094300E49DFDE49CFC800312096F30D507C3E4EA
:060953009FFFE49EFE225E
:10095900EB9FF5F0EA9E42F0E99D42F0EC6480C815
:0609690064809845F022B5
:10096F00BC000BBE0029EF8DF084FFADF022E4CC6C
:10097F00F875F008EF2FFFEE33FEEC33FCEE9DEC35
:10098F00984005FCEE9DFE0FD5F0E9E4CEFD22ED7B
:10099F00F8F5F0EE8420D21CFEADF075F008EF2FC5
:1009AF00FFED33FD4007985006D5F0F222C398FDB6
:0509BF000FD5F0EA2253
:00000001FF
